{
  "contractName": "Processor",
  "abi": [
    {
      "inputs": [
        {
          "internalType": "address",
          "name": "_targetTokenAddress",
          "type": "address"
        },
        {
          "internalType": "address",
          "name": "_internalTokenAddress",
          "type": "address"
        }
      ],
      "stateMutability": "nonpayable",
      "type": "constructor"
    },
    {
      "anonymous": false,
      "inputs": [
        {
          "indexed": true,
          "internalType": "address",
          "name": "sender",
          "type": "address"
        },
        {
          "indexed": false,
          "internalType": "address",
          "name": "recipent",
          "type": "address"
        },
        {
          "indexed": false,
          "internalType": "uint256",
          "name": "processedTokenAmount",
          "type": "uint256"
        }
      ],
      "name": "TokenDeposited",
      "type": "event"
    },
    {
      "anonymous": false,
      "inputs": [
        {
          "indexed": true,
          "internalType": "address",
          "name": "sender",
          "type": "address"
        },
        {
          "indexed": false,
          "internalType": "uint256",
          "name": "usdtAmount",
          "type": "uint256"
        },
        {
          "indexed": false,
          "internalType": "uint256",
          "name": "processedTokenAmount",
          "type": "uint256"
        },
        {
          "indexed": false,
          "internalType": "uint256",
          "name": "fee",
          "type": "uint256"
        }
      ],
      "name": "TokensProcessed",
      "type": "event"
    },
    {
      "anonymous": false,
      "inputs": [
        {
          "indexed": true,
          "internalType": "address",
          "name": "sender",
          "type": "address"
        },
        {
          "indexed": false,
          "internalType": "uint256",
          "name": "usdtAmount",
          "type": "uint256"
        },
        {
          "indexed": false,
          "internalType": "uint256",
          "name": "processedTokenAmount",
          "type": "uint256"
        },
        {
          "indexed": false,
          "internalType": "uint256",
          "name": "fee",
          "type": "uint256"
        }
      ],
      "name": "TokensTransfered",
      "type": "event"
    },
    {
      "anonymous": false,
      "inputs": [
        {
          "indexed": true,
          "internalType": "address",
          "name": "recipient",
          "type": "address"
        },
        {
          "indexed": false,
          "internalType": "uint256",
          "name": "processedTokenAmount",
          "type": "uint256"
        }
      ],
      "name": "TokensWithdrawn",
      "type": "event"
    },
    {
      "inputs": [],
      "name": "DEPOSIT",
      "outputs": [
        {
          "internalType": "uint256",
          "name": "",
          "type": "uint256"
        }
      ],
      "stateMutability": "view",
      "type": "function",
      "constant": true
    },
    {
      "inputs": [],
      "name": "TRANSFER",
      "outputs": [
        {
          "internalType": "uint256",
          "name": "",
          "type": "uint256"
        }
      ],
      "stateMutability": "view",
      "type": "function",
      "constant": true
    },
    {
      "inputs": [],
      "name": "WITHDRAW",
      "outputs": [
        {
          "internalType": "uint256",
          "name": "",
          "type": "uint256"
        }
      ],
      "stateMutability": "view",
      "type": "function",
      "constant": true
    },
    {
      "inputs": [],
      "name": "permitToken",
      "outputs": [
        {
          "internalType": "contract ERC20Permit",
          "name": "",
          "type": "address"
        }
      ],
      "stateMutability": "view",
      "type": "function",
      "constant": true
    },
    {
      "inputs": [],
      "name": "processedToken",
      "outputs": [
        {
          "internalType": "contract OwnableERC20Token",
          "name": "",
          "type": "address"
        }
      ],
      "stateMutability": "view",
      "type": "function",
      "constant": true
    },
    {
      "inputs": [],
      "name": "usdtToken",
      "outputs": [
        {
          "internalType": "contract IERC20",
          "name": "",
          "type": "address"
        }
      ],
      "stateMutability": "view",
      "type": "function",
      "constant": true
    },
    {
      "inputs": [
        {
          "internalType": "bytes[]",
          "name": "jsonList",
          "type": "bytes[]"
        }
      ],
      "name": "processCmds",
      "outputs": [],
      "stateMutability": "nonpayable",
      "type": "function"
    },
    {
      "inputs": [
        {
          "internalType": "bytes",
          "name": "signature",
          "type": "bytes"
        }
      ],
      "name": "splitSignatureWithSlicing",
      "outputs": [
        {
          "internalType": "uint8",
          "name": "v",
          "type": "uint8"
        },
        {
          "internalType": "bytes32",
          "name": "r",
          "type": "bytes32"
        },
        {
          "internalType": "bytes32",
          "name": "s",
          "type": "bytes32"
        }
      ],
      "stateMutability": "pure",
      "type": "function",
      "constant": true
    }
  ],
  "bytecode": "0x608060405234801562000010575f80fd5b506040516200159e3803806200159e833981810160405281019062000036919062000162565b805f806101000a81548173ffffffffffffffffffffffffffffffffffffffff021916908373ffffffffffffffffffffffffffffffffffffffff1602179055508160015f6101000a81548173ffffffffffffffffffffffffffffffffffffffff021916908373ffffffffffffffffffffffffffffffffffffffff1602179055508160025f6101000a81548173ffffffffffffffffffffffffffffffffffffffff021916908373ffffffffffffffffffffffffffffffffffffffff1602179055505050620001a7565b5f80fd5b5f73ffffffffffffffffffffffffffffffffffffffff82169050919050565b5f6200012c8262000101565b9050919050565b6200013e8162000120565b811462000149575f80fd5b50565b5f815190506200015c8162000133565b92915050565b5f80604083850312156200017b576200017a620000fd565b5b5f6200018a858286016200014c565b92505060206200019d858286016200014c565b9150509250929050565b6113e980620001b55f395ff3fe608060405234801561000f575f80fd5b5060043610610086575f3560e01c8063898700af11610059578063898700af1461010057806397b5036d1461011e578063a98ad46c14610150578063d81c8e521461016e57610086565b806316ba71971461008a578063412b25f9146100a857806376420e1d146100c65780637cc346c3146100e4575b5f80fd5b61009261018c565b60405161009f9190610b4d565b60405180910390f35b6100b0610191565b6040516100bd9190610be0565b60405180910390f35b6100ce6101b4565b6040516100db9190610b4d565b60405180910390f35b6100fe60048036038101906100f99190610c6b565b6101b9565b005b610108610a2a565b6040516101159190610cd6565b60405180910390f35b61013860048036038101906101339190610e27565b610a4f565b60405161014793929190610ea1565b60405180910390f35b610158610a70565b6040516101659190610ef6565b60405180910390f35b610176610a95565b6040516101839190610b4d565b60405180910390f35b600381565b5f8054906101000a900473ffffffffffffffffffffffffffffffffffffffff1681565b600181565b5f5b82829050811015610a25575f8383838181106101da576101d9610f0f565b5b90506020028101906101ec9190610f48565b8101906101f99190611037565b90505f81602001518060200190518101906102149190611194565b90505f805f610225855f0151610a4f565b9250925092505f846040015103610240575050505050610a18565b5f60035f865f015181526020019081526020015f205403610265575050505050610a18565b428460c00151101561027b575050505050610a18565b83604001515f8054906101000a900473ffffffffffffffffffffffffffffffffffffffff1673ffffffffffffffffffffffffffffffffffffffff166370a0823186606001516040518263ffffffff1660e01b81526004016102dc91906111ce565b602060405180830381865afa1580156102f7573d5f803e3d5ffd5b505050506040513d601f19601f8201168201806040525081019061031b91906111e7565b101561032b575050505050610a18565b600284602001511415801561035a575061035884606001518484846103538a60200151610a9a565b610aaa565b155b15610369575050505050610a18565b600184602001510361047d575f8054906101000a900473ffffffffffffffffffffffffffffffffffffffff1673ffffffffffffffffffffffffffffffffffffffff166323b872dd8560600151866080015187604001516040518463ffffffff1660e01b81526004016103dd93929190611212565b6020604051808303815f875af11580156103f9573d5f803e3d5ffd5b505050506040513d601f19601f8201168201806040525081019061041d919061127c565b503373ffffffffffffffffffffffffffffffffffffffff167f461add2d3d22fe252a226f0a0af3c973297332955bd43f1c4dc2e01e54c4d99b856040015186604001518760a00151604051610474939291906112a7565b60405180910390a25b60028460200151036106c45760025f9054906101000a900473ffffffffffffffffffffffffffffffffffffffff1673ffffffffffffffffffffffffffffffffffffffff1663d505accf85606001513087604001518860c001518888886040518863ffffffff1660e01b81526004016104fb97969594939291906112dc565b5f604051808303815f87803b158015610512575f80fd5b505af1158015610524573d5f803e3d5ffd5b5050505060015f9054906101000a900473ffffffffffffffffffffffffffffffffffffffff1673ffffffffffffffffffffffffffffffffffffffff166323b872dd85606001513087604001516040518463ffffffff1660e01b815260040161058e93929190611212565b6020604051808303815f875af11580156105aa573d5f803e3d5ffd5b505050506040513d601f19601f820116820180604052508101906105ce919061127c565b6105dc575050505050610a18565b5f8054906101000a900473ffffffffffffffffffffffffffffffffffffffff1673ffffffffffffffffffffffffffffffffffffffff166340c10f19856080015186604001516040518363ffffffff1660e01b815260040161063e929190611349565b5f604051808303815f87803b158015610655575f80fd5b505af1158015610667573d5f803e3d5ffd5b505050503373ffffffffffffffffffffffffffffffffffffffff167ff1444b5cad7ce70cb018d1b8edc8618fe303f3c7f034d8d572a6e27facbf2bef856080015186604001516040516106bb929190611349565b60405180910390a25b60038460200151036108f65783604001515f8054906101000a900473ffffffffffffffffffffffffffffffffffffffff1673ffffffffffffffffffffffffffffffffffffffff166370a0823186606001516040518263ffffffff1660e01b815260040161073191906111ce565b602060405180830381865afa15801561074c573d5f803e3d5ffd5b505050506040513d601f19601f8201168201806040525081019061077091906111e7565b11156108f5575f8054906101000a900473ffffffffffffffffffffffffffffffffffffffff1673ffffffffffffffffffffffffffffffffffffffff16639dc29fac3386604001516040518363ffffffff1660e01b81526004016107d4929190611349565b5f604051808303815f87803b1580156107eb575f80fd5b505af11580156107fd573d5f803e3d5ffd5b5050505060015f9054906101000a900473ffffffffffffffffffffffffffffffffffffffff1673ffffffffffffffffffffffffffffffffffffffff1663a9059cbb3386604001516040518363ffffffff1660e01b8152600401610861929190611349565b6020604051808303815f875af115801561087d573d5f803e3d5ffd5b505050506040513d601f19601f820116820180604052508101906108a1919061127c565b503373ffffffffffffffffffffffffffffffffffffffff167f6352c5382c4a4578e712449ca65e83cdb392d045dfcf1cad9615189db2da244b85604001516040516108ec9190610b4d565b60405180910390a25b5b5f8054906101000a900473ffffffffffffffffffffffffffffffffffffffff1673ffffffffffffffffffffffffffffffffffffffff166323b872dd8560600151338760a001516040518463ffffffff1660e01b815260040161095a93929190611212565b6020604051808303815f875af1158015610976573d5f803e3d5ffd5b505050506040513d601f19601f8201168201806040525081019061099a919061127c565b504260035f865f015181526020019081526020015f20819055503373ffffffffffffffffffffffffffffffffffffffff167fdb2d02c4d6334866ed539a0532cf54d4140baa6193a7ff5886cfc03e7c98fd42856040015186604001518760a00151604051610a0a939291906112a7565b60405180910390a250505050505b80806001019150506101bb565b505050565b60025f9054906101000a900473ffffffffffffffffffffffffffffffffffffffff1681565b5f805f602084015191506040840151905060608401515f1a92509193909250565b60015f9054906101000a900473ffffffffffffffffffffffffffffffffffffffff1681565b600281565b5f81805190602001209050919050565b5f806001838787876040515f8152602001604052604051610ace9493929190611370565b6020604051602081039080840390855afa158015610aee573d5f803e3d5ffd5b5050506020604051035190508673ffffffffffffffffffffffffffffffffffffffff168173ffffffffffffffffffffffffffffffffffffffff161491505095945050505050565b5f819050919050565b610b4781610b35565b82525050565b5f602082019050610b605f830184610b3e565b92915050565b5f73ffffffffffffffffffffffffffffffffffffffff82169050919050565b5f819050919050565b5f610ba8610ba3610b9e84610b66565b610b85565b610b66565b9050919050565b5f610bb982610b8e565b9050919050565b5f610bca82610baf565b9050919050565b610bda81610bc0565b82525050565b5f602082019050610bf35f830184610bd1565b92915050565b5f604051905090565b5f80fd5b5f80fd5b5f80fd5b5f80fd5b5f80fd5b5f8083601f840112610c2b57610c2a610c0a565b5b8235905067ffffffffffffffff811115610c4857610c47610c0e565b5b602083019150836020820283011115610c6457610c63610c12565b5b9250929050565b5f8060208385031215610c8157610c80610c02565b5b5f83013567ffffffffffffffff811115610c9e57610c9d610c06565b5b610caa85828601610c16565b92509250509250929050565b5f610cc082610baf565b9050919050565b610cd081610cb6565b82525050565b5f602082019050610ce95f830184610cc7565b92915050565b5f80fd5b5f601f19601f8301169050919050565b7f4e487b71000000000000000000000000000000000000000000000000000000005f52604160045260245ffd5b610d3982610cf3565b810181811067ffffffffffffffff82111715610d5857610d57610d03565b5b80604052505050565b5f610d6a610bf9565b9050610d768282610d30565b919050565b5f67ffffffffffffffff821115610d9557610d94610d03565b5b610d9e82610cf3565b9050602081019050919050565b828183375f83830152505050565b5f610dcb610dc684610d7b565b610d61565b905082815260208101848484011115610de757610de6610cef565b5b610df2848285610dab565b509392505050565b5f82601f830112610e0e57610e0d610c0a565b5b8135610e1e848260208601610db9565b91505092915050565b5f60208284031215610e3c57610e3b610c02565b5b5f82013567ffffffffffffffff811115610e5957610e58610c06565b5b610e6584828501610dfa565b91505092915050565b5f60ff82169050919050565b610e8381610e6e565b82525050565b5f819050919050565b610e9b81610e89565b82525050565b5f606082019050610eb45f830186610e7a565b610ec16020830185610e92565b610ece6040830184610e92565b949350505050565b5f610ee082610baf565b9050919050565b610ef081610ed6565b82525050565b5f602082019050610f095f830184610ee7565b92915050565b7f4e487b71000000000000000000000000000000000000000000000000000000005f52603260045260245ffd5b5f80fd5b5f80fd5b5f80fd5b5f8083356001602003843603038112610f6457610f63610f3c565b5b80840192508235915067ffffffffffffffff821115610f8657610f85610f40565b5b602083019250600182023603831315610fa257610fa1610f44565b5b509250929050565b5f80fd5b5f80fd5b5f60408284031215610fc757610fc6610faa565b5b610fd16040610d61565b90505f82013567ffffffffffffffff811115610ff057610fef610fae565b5b610ffc84828501610dfa565b5f83015250602082013567ffffffffffffffff81111561101f5761101e610fae565b5b61102b84828501610dfa565b60208301525092915050565b5f6020828403121561104c5761104b610c02565b5b5f82013567ffffffffffffffff81111561106957611068610c06565b5b61107584828501610fb2565b91505092915050565b61108781610b35565b8114611091575f80fd5b50565b5f815190506110a28161107e565b92915050565b5f6110b282610b66565b9050919050565b6110c2816110a8565b81146110cc575f80fd5b50565b5f815190506110dd816110b9565b92915050565b5f60e082840312156110f8576110f7610faa565b5b61110260e0610d61565b90505f61111184828501611094565b5f83015250602061112484828501611094565b602083015250604061113884828501611094565b604083015250606061114c848285016110cf565b6060830152506080611160848285016110cf565b60808301525060a061117484828501611094565b60a08301525060c061118884828501611094565b60c08301525092915050565b5f60e082840312156111a9576111a8610c02565b5b5f6111b6848285016110e3565b91505092915050565b6111c8816110a8565b82525050565b5f6020820190506111e15f8301846111bf565b92915050565b5f602082840312156111fc576111fb610c02565b5b5f61120984828501611094565b91505092915050565b5f6060820190506112255f8301866111bf565b61123260208301856111bf565b61123f6040830184610b3e565b949350505050565b5f8115159050919050565b61125b81611247565b8114611265575f80fd5b50565b5f8151905061127681611252565b92915050565b5f6020828403121561129157611290610c02565b5b5f61129e84828501611268565b91505092915050565b5f6060820190506112ba5f830186610b3e565b6112c76020830185610b3e565b6112d46040830184610b3e565b949350505050565b5f60e0820190506112ef5f83018a6111bf565b6112fc60208301896111bf565b6113096040830188610b3e565b6113166060830187610b3e565b6113236080830186610e7a565b61133060a0830185610e92565b61133d60c0830184610e92565b98975050505050505050565b5f60408201905061135c5f8301856111bf565b6113696020830184610b3e565b9392505050565b5f6080820190506113835f830187610e92565b6113906020830186610e7a565b61139d6040830185610e92565b6113aa6060830184610e92565b9594505050505056fea26469706673582212205cb063fef5e0a4e44377b81f20bb1e3d3b6e78b277b6c75c0a0d017623fb96c064736f6c63430008170033",
  "immutableReferences": {},
  "source": "// SPDX-License-Identifier: MIT\npragma solidity ^0.8.20;\n\nimport \"@openzeppelin/contracts/token/ERC20/IERC20.sol\";\nimport \"@openzeppelin/contracts/token/ERC20/extensions/ERC20Permit.sol\";\nimport \"./OwnableERC20Token.sol\";\n\ncontract Processor {\n    OwnableERC20Token public processedToken;\n    IERC20 public usdtToken;\n    ERC20Permit public permitToken;\n\n    uint public constant TRANSFER = 1;\n    uint public constant DEPOSIT = 2;\n    uint public constant WITHDRAW = 3;\n\n    struct TransferData {\n        bytes sign;\n        bytes data;\n    }\n\n    struct AssetTransfer {\n        uint256 cmd_id;\n        uint256 cmd_type;\n        uint256 amount;\n        address from;\n        address to;\n        uint256 fee;\n        uint256 deadline;\n    }\n\n    mapping(uint256 => uint256) private _nonces; \n\n    event TokensProcessed(address indexed sender, uint256 usdtAmount, uint256 processedTokenAmount, uint256 fee);\n    event TokensTransfered(address indexed sender, uint256 usdtAmount, uint256 processedTokenAmount, uint256 fee);\n    event TokensWithdrawn(address indexed recipient, uint256 processedTokenAmount);\n    event TokenDeposited(address indexed sender, address recipent, uint256 processedTokenAmount);\n\n    constructor(address _targetTokenAddress, address _internalTokenAddress) {\n        processedToken = OwnableERC20Token(_internalTokenAddress);\n        usdtToken = IERC20(_targetTokenAddress);\n        permitToken = ERC20Permit(_targetTokenAddress);\n    }\n\n    function processCmds(bytes[] calldata jsonList) external {\n        for (uint256 i = 0; i < jsonList.length; i++) {\n            TransferData memory transferData = abi.decode(jsonList[i], (TransferData));\n            AssetTransfer memory data = abi.decode(transferData.data, (AssetTransfer));\n            (uint8 v, bytes32 r, bytes32 s) = splitSignatureWithSlicing(transferData.sign);\n            if (data.amount == 0) {\n                // Skip iteration if the transfer amount is zero\n                continue;\n            }\n\n            if (_nonces[data.cmd_id] == 0)\n            {\n                continue;\n            }\n\n            if (data.deadline < block.timestamp)\n            {\n                continue;\n            }\n\n            // Ensure that the sender has enough balance to perform the transfer\n            if (processedToken.balanceOf(data.from) < data.amount) {\n                // Skip iteration if the sender has insufficient balance\n                continue;\n            }\n\n            // Validate the signature\n            if ((data.cmd_type != DEPOSIT) && \n                !validateSignature(data.from, v, r, s, calculateHash(transferData.data)))\n            {   // Skip iteration if the signature is invalid\n                continue;\n            }\n\n            if (data.cmd_type == TRANSFER)\n            {\n                // Perform the transfer\n                processedToken.transferFrom(data.from, data.to, data.amount);\n                emit TokensTransfered(msg.sender, data.amount, data.amount, data.fee);\n            }\n\n            if (data.cmd_type == DEPOSIT)\n            {\n                permitToken.permit(data.from, address(this), data.amount, data.deadline, v, r, s);\n                if (!usdtToken.transferFrom(data.from, address(this), data.amount))\n                {\n                    continue;\n                }\n                processedToken.mint(data.to, data.amount);\n                emit TokenDeposited(msg.sender, data.to, data.amount);\n            }\n\n            if (data.cmd_type == WITHDRAW)\n            {\n                if (processedToken.balanceOf(data.from) > data.amount)\n                {\n                    processedToken.burn(msg.sender, data.amount);\n                    usdtToken.transfer(msg.sender, data.amount);\n                    emit TokensWithdrawn(msg.sender, data.amount);\n                }\n            }\n\n            // Perform the transfer fee\n            processedToken.transferFrom(data.from, msg.sender, data.fee);\n            _nonces[data.cmd_id] = block.timestamp;\n            emit TokensProcessed(msg.sender, data.amount, data.amount, data.fee);\n        }\n    }\n\n    function calculateHash(bytes memory data) internal pure returns (bytes32) {\n        return keccak256(data);\n    }\n\n    function splitSignatureWithSlicing(bytes memory signature) public pure returns (uint8 v, bytes32 r, bytes32 s){\n        // Divide the signature in r, s and v variables with inline assembly.\n        assembly {\n        r := mload(add(signature, 0x20))\n        s := mload(add(signature, 0x40))\n        v := byte(0, mload(add(signature, 0x60)))\n        }\n\n    }\n\n    /*\n\n    function calculateDigest(AssetTransfer memory data) internal pure returns (bytes32) {\n        return keccak256(abi.encodePacked(data.cmd_id, data.cmd_type, data.amount, data.from, data.to, data.fee, data.deadline));\n    }\n\n    */\n    \n    function validateSignature(address from, uint8 v, bytes32 r, bytes32 s, bytes32 dataHash) internal pure returns (bool) {\n        address recoveredAddress = ecrecover(dataHash, v, r, s);\n        return recoveredAddress == from;\n    }\n}\n",
  "sourcePath": "/Users/alexshkor/cli/cil-omniassets-evm-contracts/contracts/Processor.sol",
  "compiler": {
    "name": "solc",
    "version": "0.8.23+commit.f704f362.Emscripten.clang"
  },
  "schemaVersion": "3.4.16",
  "updatedAt": "2024-01-20T21:48:14.001Z",
  "networkType": "ethereum",
  "devdoc": {
    "kind": "dev",
    "methods": {},
    "version": 1
  },
  "userdoc": {
    "kind": "user",
    "methods": {},
    "version": 1
  }
}